:020000040800F2
:100000005007002089010008452E00083D26000801
:10001000B92A000891020008B53F0008000000005E
:10002000000000000000000000000000DD380008B3
:10003000C103000800000000992F0008F13A0008F1
:10004000A3010008A3010008A3010008A301000800
:10005000A3010008A3010008A3010008A3010008F0
:10006000A3010008A3010008A3010008A3010008E0
:10007000A3010008A3010008A3010008A3010008D0
:10008000A3010008A3010008A3010008A3010008C0
:10009000A3010008A3010008A3010008A3010008B0
:1000A000A3010008A3010008A3010008A3010008A0
:1000B000913B0008A3010008A3010008A301000868
:1000C000A3010008A3010008A3010008A301000880
:1000D000A3010008A3010008A3010008A301000870
:1000E000A3010008A3010008A301000800F002F822
:1000F00000F03AF80AA090E8000C82448344AAF188
:100100000107DA4501D100F02FF8AFF2090EBAE885
:100110000F0013F0010F18BFFB1A43F0010318473B
:100120005040000070400000103A24BF78C878C1E9
:10013000FAD8520724BF30C830C144BF04680C60ED
:10014000704700000023002400250026103A28BF35
:1001500078C1FBD8520728BF30C148BF0B60704739
:100160001FB51FBD10B510BD00F058F81146FFF7C0
:10017000F7FF03F081FF00F076F803B4FFF7F2FF1A
:1001800003BC00F07DF8000009488047094800479B
:10019000FEE7FEE7FEE7FEE7FEE7FEE7FEE7FEE737
:1001A000FEE7FEE704480549054A064B7047000094
:1001B0008D3B0008ED000008500100205007002092
:1001C00050030020500300204FF0000200B51346FA
:1001D00094469646203922BFA0E80C50A0E80C5067
:1001E000B1F12001BFF4F7AF090728BFA0E80C5018
:1001F00048BF0CC05DF804EB890028BF40F8042B11
:1002000008BF704748BF20F8022B11F0804F18BF7D
:1002100000F8012B7047704770477047754600F033
:100220002BF8AE4605006946534620F00700854688
:1002300018B020B5FFF7B6FFBDE820404FF000062C
:100240004FF000074FF000084FF0000BAC46ACE851
:10025000C009ACE8C009ACE8C009ACE8C00921F0AD
:1002600007018D46704710B50446AFF30080204665
:10027000BDE81040FFF781BF00487047180000201C
:1002800001491820ABBEFEE72600020070470000BF
:10029000FFE7FEE740F20C00C2F200000078704772
:1002A00080B584B040F29400C2F2000040F24811E0
:1002B000C2F200010191002201F020FC01990A78AC
:1002C00040F28800C2F2000002704A7842708978D9
:1002D000817081788DF80E100088ADF80C009DF8C3
:1002E0000E008DF80A00BDF80C00ADF80800029869
:1002F00004B080BD80B502F0E3FA40F20C00C2F217
:100300000000007800EB80004000C0B203F028FB42
:1003100040F29400C2F2000040F24811C2F2000123
:10032000002201F0EBFB18B1FFE700F003F8FFE754
:1003300080BD000080B500221046114600F022F872
:1003400080BD000080B582B08DF807009DF80700E1
:100350000B2804DBFFE70A208DF80700FFE79DF874
:10036000071040F20C00C2F200000170007800EBB0
:1003700080004000C0B203F0F3FA03F0B1FA02B01B
:1003800080BD000080B582B08DF807008DF80610A2
:100390008DF805209DF807008DF800009DF80600F7
:1003A0008DF801009DF805008DF8020040F29400E0
:1003B000C2F200006946002201F036FD02B080BDA5
:1003C0007047000080B586B040F2F000C2F2000035
:1003D000007A01460491052800F262810499DFE861
:1003E00011F006003A007300A800E9001E0140F277
:1003F000F000C2F2000042794CF6CD41CCF6CC417F
:10040000A2FB0132D2088DF817204079A0FB012110
:10041000C90801EB8101A0EB41008DF816009DF8A1
:10042000170020B9FFE702208DF8170005E09DF8BE
:10043000170001388DF81700FFE79DF8170000EB53
:1004400080019DF8160000EB410040F2F001C2F27D
:100450000001487124E140F2F000C2F2000042794C
:100460004CF6CD41CCF6CC41A2FB0132D2088DF83E
:1004700017204079A0FB0121C90801EB8101A0EB05
:1004800041008DF816009DF8160048B9FFE79DF869
:1004900017100920022908BF03208DF8160005E077
:1004A0009DF8160001388DF81600FFE79DF817003B
:1004B00000EB80019DF8160000EB410040F2F001D6
:1004C000C2F200014871EBE040F2F000C2F200001D
:1004D00082794CF6CD41CCF6CC41A2FB0132D20858
:1004E0008DF817208079A0FB0121C90801EB81015B
:1004F000A0EB41008DF816009DF8170018B9FFE732
:100500000520039004E09DF8170001380390FFE7F1
:1005100003988DF817009DF8170000EB80019DF8F7
:10052000160000EB410040F2F001C2F200018871B8
:10053000B6E040F2F000C2F20000807949F698116E
:10054000C1F699114CF6CD42CCF6CC4200FB02101C
:100550004FEA7000884203D8FFE70920029012E0BA
:1005600040F2F000C2F2000081794CF6CD40CCF6AA
:10057000CC40A1FB0020C00800EB80006FEA4000E7
:1005800008440290FFE702988DF8160040F2F0014F
:10059000C2F2000188794CF6CD42CCF6CC42A0FBE9
:1005A0000220C00800EB80029DF8160000EB42001C
:1005B000887175E040F2F000C2F20000C2794CF69A
:1005C000CD41CCF6CC41A2FB0132D2088DF81720E8
:1005D000C079A0FB0121C90801EB8101A0EB41001A
:1005E0008DF816009DF8170018B9FFE70520019057
:1005F00004E09DF8170001380190FFE701988DF89D
:1006000017009DF8170000EB80019DF8160000EB25
:10061000410040F2F001C2F20001C87140E040F236
:10062000F000C2F20000C07949F69811C1F69911A4
:100630004CF6CD42CCF6CC4200FB02104FEA7000E3
:10064000884203D8FFE70920009012E040F2F00052
:10065000C2F20000C1794CF6CD40CCF6CC40A1FBF3
:100660000020C00800EB80006FEA400008440090C2
:10067000FFE700988DF8160040F2F001C2F2000189
:10068000C8794CF6CD42CCF6CC42A0FB0220C00883
:1006900000EB80029DF8160000EB4200C871FFE7F6
:1006A00003F084FB06B080BD40F61043C4F20103A2
:1006B0004FF0004018604FF4801018604FF4002293
:1006C0001A604FF4800119604FF4000119604FF077
:1006D000807119604FF00071196040F61001C4F28A
:1006E00001014FF480330B604FF400330B604FF483
:1006F00080230B600A6008604FF4001008607047A8
:1007000082B08DF807009DF807000146009105288A
:100710002FD80099DFE801F0030A11181F2640F6D0
:100720001001C4F201010120086022E040F610012E
:10073000C4F20101022008601BE040F61001C4F27F
:1007400001010420086014E040F61001C4F2010128
:10075000082008600DE040F61001C4F201011020ED
:10076000086006E040F61001C4F201012020086094
:10077000FFE702B07047000081B0EFF3108072B65F
:100780000090FFE7FEE7000082B001900091009822
:1007900000784CF6CD41CCF6CC41A0FB01023020D4
:1007A00000EBD202019B1A70009A1278A2FB01C3DF
:1007B000DB0803EB8303A2EB430242F03002019B10
:1007C0005A70009A5278A2FB013200EBD202019BD0
:1007D0009A70009A5278A2FB01C3DB0803EB8303F3
:1007E000A2EB430242F03002019BDA70009A927849
:1007F000A2FB013200EBD200019A107100988078C0
:10080000A0FB0121C90801EB8101A0EB410040F0F0
:1008100030000199487102B07047000082B08DF835
:10082000060000200090FFE7009834281CD8FFE75E
:10083000009944F2F000C0F6000010F811009DF895
:10084000061088420BD1FFE7009944F2F000C0F691
:10085000000000EB410040788DF8070008E0FFE75A
:10086000009801300090DFE7FF208DF80700FFE7D8
:100870009DF8070002B0704790B00F900E910020D5
:100880000D900990FFE70E9800680D99C840002868
:1008900000F07F81FFE70D99012088400C900E98B1
:1008A00000680C9908400B900B980C99884240F016
:1008B0006C81FFE70E9840680590002851D0FFE753
:1008C000059801283AD0FFE7059802283FD0FFE7B6
:1008D000059803285FD0FFE70598112832D0FFE77D
:1008E0000598122838D0FFE705980021C1F21101C0
:1008F000884236D0FFE705980021C1F212018842F4
:100900002FD0FFE705980021C1F22101884228D0AD
:10091000FFE705980021C1F22201884221D0FFE7BC
:1009200005980021C1F2310188421AD0FFE70598ED
:100930000021C1F23201884213D02FE00E98C06826
:1009400009902CE00E98C0680430099027E00E98BA
:10095000C0680830099022E00E98C0680C300990F9
:100960001DE00E98806818B9FFE70420099011E097
:100970000E988068012806D1FFE7082009900C989E
:100980000F99086105E0082009900C980F994861BB
:10099000FFE7FFE703E00020099000E0FFE70B9886
:1009A000FF2803D8FFE70F98049003E00F98043066
:1009B0000490FFE7049808900B98FF2804D8FFE7FD
:1009C0000D988000039006E00D996FF01F0000EB7A
:1009D00081000390FFE70398079008980068079A42
:1009E0000F21914088430999914008430899086074
:1009F0000E98C079C006002840F1C680FFE7FFE7E7
:100A000041F21800C4F20200016841F001010160E6
:100A1000006800F0010006900698FFE70D9820F0AE
:100A200003000821C4F2010140580A900D9800F01B
:100A3000030081000F2000FA01F10A9888430A9010
:100A40000F9840F60001C4F20101884203D1FFE78C
:100A50000020029026E00F9840F60041C4F2010108
:100A6000884203D1FFE70120019018E00F9841F27E
:100A70000001C4F20101884203D1FFE70220009087
:100A80000AE00F9941F20042C4F2010204209142AF
:100A900008BF03200090FFE700980190FFE701984E
:100AA0000290FFE702980D9901F00301890000FA16
:100AB00001F10A9808430A900A980D9921F0030160
:100AC0000822C4F2010288500E988079C0060028DE
:100AD00009D5FFE70B9A40F20841C4F2010108680A
:100AE0001043086008E00B9A40F20841C4F201018B
:100AF000086890430860FFE70E9880798006002818
:100B000009D5FFE70B9A40F20C41C4F201010868D5
:100B10001043086008E00B9A40F20C41C4F2010156
:100B2000086890430860FFE70E98807980070028E6
:100B300009D5FFE70B9A40F20441C4F201010868AD
:100B40001043086008E00B9A40F20441C4F201012E
:100B5000086890430860FFE70E988079C00748B1A5
:100B6000FFE70B9A40F20041C4F20101086810430C
:100B7000086008E00B9A40F20041C4F201010868E5
:100B800090430860FFE7FFE7FFE70D9801300D9005
:100B900079E610B07047000082B00190ADF8021005
:100BA00001988068BDF80210084204D0FFE70120D8
:100BB0008DF8010003E000208DF80100FFE79DF8AB
:100BC000010002B07047000082B00190ADF8021041
:100BD0008DF801209DF8010028B1FFE7BDF8020063
:100BE0000199086105E0BDF802000004019908615F
:100BF000FFE702B07047000040F24C10C2F2000064
:100C00000068704740F20D00C2F20000027840F226
:100C10004C11C2F2000108681044086070470000DF
:100C200080B542F20001C4F20201086840F01000F1
:100C30000860032000F096F80F2000F005F800F09F
:100C40003BF8002080BD000080B582B0009040F2EB
:100C50000800C2F20000006840F20D01C2F200017B
:100C60000A784FF47A71B1FBF2F1B0FBF1F001F0C8
:100C7000AFF920B1FFE701208DF8070018E00098D8
:100C80000F280DD8FFE700994FF0FF30002200F049
:100C90004FF8009840F21001C2F20001086003E032
:100CA00001208DF8070003E000208DF80700FFE722
:100CB0009DF8070002B080BD83B0FFE741F2180045
:100CC000C4F20200016841F001010160006800F017
:100CD000010002900298FFE7FFE741F21C00C4F216
:100CE0000200016841F080510160006800F080500E
:100CF00001900198FFE7FFE70421C4F201010868B1
:100D00000090009820F0E0600090009840F00070A3
:100D1000009000980860FFE703B0704780B582B08C
:100D20008DF807009DF9070003F046F902B080BD79
:100D300080B586B08DF817000491039200200290D0
:100D400003F052F902909DF917000190029804995E
:100D5000039A02F079F80146019803F04DF906B0C4
:100D600080BD000080B582B00190019803F066F963
:100D700002B080BD2021C4F20E210120086070471E
:100D800080B588B0079000200690059004900390ED
:100D9000029007980190012866D0FFE70198022889
:100DA00000F0A580FFE70198102840F0B080FFE731
:100DB00041F20400C4F202000068039041F2000016
:100DC000C4F202000068C00100284CD5FFE7039878
:100DD000C0F3834144F2CC00C0F60000405C0490B4
:100DE0009DF80E00C007F0B1FFE741F20400C4F225
:100DF00002000068C0F3404144F2DC00C0F600008D
:100E0000405C06909DF80E00C00758B1FFE70699B8
:100E100041F20020C0F27A00B0FBF1F0049948439F
:100E20000590FFE707E0049840F60011C0F23D018D
:100E300048430590FFE741F20400C4F20200006855
:100E40004002002803D5FFE7059802900AE00598C4
:100E500040004AF6AB21CAF6AA21A0FB01104008C7
:100E60000290FFE7FFE753E041F22000C4F20200E6
:100E700000680390039800F44070B0F5807F0AD1B9
:100E8000FFE79DF80C008007002804D5FFE74FF42A
:100E9000004002902AE0039800F44070B0F5007F13
:100EA0000DD1FFE741F22400C4F202000068800780
:100EB000002804D5FFE749F64040029015E003986A
:100EC00000F44070B0F5407F0DD1FFE741F2000023
:100ED000C4F2020000688003002804D5FFE74FF247
:100EE0002440029000E0FFE7FFE7FFE710E000F09A
:100EF00029FA41F20401C4F20201096801F44042F6
:100F0000022101EB5231B0FBF1F0029000E0FFE76B
:100F1000029808B080BD000080B586B00490002023
:100F20000390029004980078C007002800F0AC807D
:100F3000FFE700208DF8070041F21C00C4F2020018
:100F40000068C000002813D4FFE7FFE741F21C004F
:100F5000C4F20200016841F080510160006800F0B5
:100F6000805000900098FFE701208DF80700FFE710
:100F700047F20000C4F200000068C005002822D437
:100F8000FFE747F20001C4F20001086840F48070F6
:100F90000860FFF731FE0390FFE747F20000C4F25C
:100FA00000000068C00500280CD4FFE7FFF724FE0E
:100FB0000399401A652804D3FFE703208DF8170032
:100FC0008AE0EAE7FFE741F22000C4F2020000688D
:100FD00000F4407002900298E0B3FFE70298049991
:100FE000496801F44071884234D0FFE741F22001A2
:100FF000C4F20201086820F44070029040F24042BE
:10100000C4F24222012010600020106002980860A3
:101010009DF80800C007E0B1FFE7FFF7EDFD039082
:10102000FFE741F22000C4F20200006880070028B8
:101030000ED4FFE7FFF7E0FD0399401A41F2893132
:10104000884204D3FFE703208DF8170044E0E8E767
:10105000FFE7FFE741F22001C4F20201086820F433
:101060004070049A5268104308609DF807000128F8
:1010700009D1FFE741F21C01C4F20201086820F027
:1010800080500860FFE7FFE7049800788007002899
:101090000CD5FFE741F20401C4F20201086820F414
:1010A0004040049A926810430860FFE70498007873
:1010B000C00600280CD5FFE741F20401C4F202018A
:1010C000086820F48000049AD26810430860FFE7A3
:1010D00000208DF81700FFE79DF8170006B080BDCF
:1010E00080B584B002900191029820B9FFE70120F9
:1010F0008DF80F001BE1019842F20001C4F20201D9
:10110000096801F00701884216D9FFE742F20000A2
:10111000C4F20200016821F00701019A1143016045
:10112000006800F007000199884204D0FFE7012021
:101130008DF80F00FBE0FFE7029800788007002899
:101140002AD5FFE7029800784007002809D5FFE775
:1011500041F20401C4F20201086840F4E060086052
:10116000FFE7029800780007002809D5FFE741F261
:101170000401C4F20201086840F460500860FFE70F
:1011800041F20401C4F20201086820F0F000029A62
:10119000926810430860FFE702980078C0070028B3
:1011A00060D0FFE70298406801280ED1FFE741F2C6
:1011B0000000C4F2020000688003002804D4FFE7A6
:1011C00001208DF80F00B2E021E00298406802286B
:1011D0000ED1FFE741F20000C4F202000068800176
:1011E000002804D4FFE701208DF80F009FE00DE0F8
:1011F00041F20000C4F2020000688007002804D415
:10120000FFE701208DF80F0091E0FFE7FFE741F2D3
:101210000401C4F20201086820F00300029A526837
:1012200010430860FFF7E8FC0090FFE741F204007C
:10123000C4F20200006800F00C0002994968B0EBAB
:10124000810F0ED0FFE7FFF7D7FC0099401A41F25B
:101250008931884204D3FFE703208DF80F0066E050
:10126000E4E7FFE7019842F20001C4F202010968D5
:1012700001F00701884216D2FFE742F20000C4F2F3
:101280000200016821F00701019A11430160006822
:1012900000F007000199884204D0FFE701208DF893
:1012A0000F0044E0FFE702980078400700280CD5C3
:1012B000FFE741F20401C4F20201086820F4E06093
:1012C000029AD26810430860FFE70298007800078E
:1012D00000280DD5FFE741F20401C4F202010868BD
:1012E00020F46050029A126940EAC2000860FFE7E9
:1012F00000F03AF841F20401C4F202010968C9B2EF
:101300000A0944F2B401C0F60001895CC84040F209
:101310000801C2F20001086040F21000C2F20000B1
:101320000068FFF791FC00208DF80F00FFE79DF8A3
:101330000F0004B080BD000040F20800C2F20000BF
:101340000068704780B5FFF7F7FF41F20401C4F26F
:1013500002010968C1F3C22244F2C401C0F60001CF
:10136000895CC84080BD000086B0002005900490D4
:1013700003900290019041F20400C4F20200006860
:101380000590059800F00C000146009100283FD020
:10139000FFE70098042804D0FFE70098082806D04B
:1013A00037E041F20020C0F27A00019037E0059862
:1013B000C0F3834144F2DE00C0F60000405C0290BE
:1013C0009DF81600C007C0B1FFE741F20400C4F267
:1013D00002000068C0F3404144F2EE00C0F6000095
:1013E000405C0490029841F20021C0F27A01484327
:1013F0000499B0FBF1F0039007E0029840F6001169
:10140000C0F23D0148430390FFE70398019006E0D6
:10141000FFE741F20020C0F27A000190FFE7019857
:1014200006B0704780B586B00490049820B9FFE7F5
:1014300001208DF817002EE304980078C0070028DB
:1014400000F0AE80FFE741F20400C4F20200006841
:1014500000F00C00042813D0FFE741F20400C4F2AE
:101460000200006800F00C0008281BD1FFE741F2E1
:101470000400C4F202000068C003002812D5FFE790
:1014800041F20000C4F2020000688003002808D581
:10149000FFE70498406820B9FFE701208DF81700A6
:1014A000F9E27CE0FFE704984068B0F5803F09D19D
:1014B000FFE741F20001C4F20201086840F4803005
:1014C000086032E00498406868B9FFE741F2000123
:1014D000C4F20201086820F480300860086820F433
:1014E0008020086020E004984068B0F5A02F0DD15E
:1014F000FFE741F20001C4F20201086840F48020D5
:101500000860086840F4803008600CE041F2000197
:10151000C4F20201086820F480300860086820F4F2
:1015200080200860FFE7FFE7FFE7FFE704984068D7
:10153000D0B1FFE7FFF760FB0390FFE741F2000047
:10154000C4F202000068800300280CD4FFE7FFF714
:1015500053FB0399401A652804D3FFE703208DF855
:10156000170098E2EAE719E0FFF746FB0390FFE770
:1015700041F20000C4F202000068800300280CD58C
:10158000FFE7FFF739FB0399401A652804D3FFE70B
:1015900003208DF817007EE2EAE7FFE7FFE7FFE7A9
:1015A000049800788007002840F18D80FFE741F221
:1015B0000400C4F20200006810F00C0F13D0FFE723
:1015C00041F20400C4F20200006800F00C00082898
:1015D00029D1FFE741F20400C4F202000068C00311
:1015E000002820D4FFE741F20000C4F202000068A6
:1015F0008007002809D5FFE704980069012804D076
:10160000FFE701208DF8170045E241F20001C4F226
:101610000201086820F0F800049A526940EAC2000A
:101620000860FFE74EE00498006958B3FFE7002127
:10163000C4F2422101200860FFF7DEFA0390FFE7C1
:1016400041F20000C4F202000068800700280CD4B8
:10165000FFE7FFF7D1FA0399401A032804D3FFE705
:1016600003208DF8170016E2EAE741F20001C4F208
:101670000201086820F0F800049A526940EAC200AA
:1016800008601EE00021C4F2422100200860FFF73C
:10169000B3FA0390FFE741F20000C4F202000068D1
:1016A000800700280CD5FFE7FFF7A6FA0399401A38
:1016B000032804D3FFE703208DF81700EBE1EAE7E6
:1016C000FFE7FFE7FFE7049800780007002848D508
:1016D000FFE70498806918B3FFE740F28041C4F245
:1016E000422101200860FFF787FA0390FFE741F2EB
:1016F0002400C4F202000068800700280CD4FFE731
:10170000FFF77AFA0399401A032804D3FFE703206E
:101710008DF81700BFE1EAE7012001F0E7FD1FE0C7
:1017200040F28041C4F2422100200860FFF764FAD1
:101730000390FFE741F22400C4F202000068800732
:1017400000280CD5FFE7FFF757FA0399401A032842
:1017500004D3FFE703208DF817009CE1EAE7FFE7D9
:10176000FFE7049800784007002840F1D880FFE7A1
:1017700000208DF8070041F21C00C4F2020000684E
:10178000C000002813D4FFE7FFE741F21C00C4F2B9
:101790000200016841F080510160006800F0805053
:1017A00000900098FFE701208DF80700FFE747F25F
:1017B0000000C4F200000068C005002822D4FFE742
:1017C00047F20001C4F20001086840F4807008602C
:1017D000FFF712FA0390FFE747F20000C4F200009F
:1017E0000068C00500280CD4FFE7FFF705FA03994D
:1017F000401A652804D3FFE703208DF817004AE15B
:10180000EAE7FFE7FFE70498C068012809D1FFE78E
:1018100041F22001C4F20201086840F001000860B2
:1018200031E00498C06868B9FFE741F22001C4F2D2
:101830000201086820F001000860086820F0040038
:1018400008601FE00498C06805280DD1FFE741F249
:101850002001C4F20201086840F004000860086832
:1018600040F0010008600CE041F22001C4F20201E6
:10187000086820F001000860086820F00400086093
:10188000FFE7FFE7FFE7FFE70498C068E0B1FFE785
:10189000FFF7B2F90390FFE741F22000C4F2020023
:1018A0000068800700280ED4FFE7FFF7A5F9039929
:1018B000401A41F28931884204D3FFE703208DF8B2
:1018C0001700E8E0E8E71BE0FFF796F90390FFE771
:1018D00041F22000C4F202000068800700280ED503
:1018E000FFE7FFF789F90399401A41F289318842ED
:1018F00004D3FFE703208DF81700CCE0E8E7FFE70B
:101900009DF80700012809D1FFE741F21C01C4F24C
:101910000201086820F080500860FFE7FFE70498A4
:10192000C069002800F0B380FFE741F20400C4F270
:101930000200006800F00C00082800F08280FFE739
:101940000498C06902285CD1FFE76021C4F24221FB
:1019500000200860FFF750F90390FFE741F2000014
:10196000C4F202000068800100280CD5FFE7FFF7F1
:1019700043F90399401A032804D3FFE703208DF8A5
:10198000170088E0EAE70498006AB0F5803F0CD1C0
:10199000FFE741F20401C4F20201086820F40030BC
:1019A000049A926810430860FFE741F20401C4F210
:1019B0000201086820F47410049B1A6A5B6A1A43D7
:1019C000104308606021C4F2422101200860FFF743
:1019D00013F90390FFE741F20000C4F2020000682F
:1019E000800100280CD4FFE7FFF706F90399401A9D
:1019F000032804D3FFE703208DF817004BE0EAE744
:101A00001EE06021C4F2422100200860FFF7F4F8D4
:101A10000390FFE741F20000C4F202000068800179
:101A200000280CD5FFE7FFF7E7F80399401A0328D1
:101A300004D3FFE703208DF817002CE0EAE7FFE767
:101A400024E00498C069012804D1FFE701208DF843
:101A5000170020E041F20400C4F202000068029086
:101A6000029800F480300499096A884208D1FFE79F
:101A7000029800F470100499496A884204D0FFE784
:101A800001208DF8170006E0FFE7FFE7FFE70020E1
:101A90008DF81700FFE79DF8170006B080BD000025
:101AA00084B00390029100200190009046F600401F
:101AB000C4F2000001900299019800EB81000190AE
:101AC0000198006880B20090009804B07047000050
:101AD00084B00390029101920020009046F60040ED
:101AE000C4F2000000900299009800EB8100009081
:101AF000BDF804000099086004B0704780B588B054
:101B000006900591049200200390029001900090AD
:101B1000069818B1FFE7059820B9FFE701208DF876
:101B20001F00C0E00698006840684007002803D501
:101B3000FFE7012018B906E0012020B9FFE70120E6
:101B40008DF81F00AFE0069801F08AFD039003991D
:101B50004BF2C530C9F2A210A1FB0021C90A0091C5
:101B6000039BA3FB0021C90A4FF4616201FB1233FE
:101B700048F68901C8F68801A3FB01C35B09DDF8BB
:101B800014C08CF80130039BA3FB00C0C00A00FB0B
:101B90001230A0FB011251090901A1EB5211A0EB77
:101BA000810005998870009818285ED3FFE7009897
:101BB0004AF6AB21CAF6AA21A0FB01200009019038
:101BC0000098A0FB0121090901EB4101A0EBC10034
:101BD00005990870069801F029FD029002980130DD
:101BE00050B1FFE702980399884205D9FFE70399AE
:101BF0000298401A029003E04FF0FF300290FFE796
:101C0000019840F2A32141430398A0EBC110039037
:101C10000698039901F0F4FD20B1FFE701208DF84B
:101C20001F0040E00298013078B1FFE70399029865
:101C3000084402900698029901F0BAFD20B1FFE72E
:101C400001208DF81F002EE00AE00698029901F0AD
:101C5000AFFD20B1FFE701208DF81F0023E0FFE773
:101C60000698019901F094FB03E00098059908702B
:101C7000FFE7049898B1FFE70598007801F06AFB48
:101C8000059908700598407801F064FB0599487043
:101C90000598807801F05EFB05998870FFE70020C9
:101CA0008DF81F00FFE79DF81F0008B080BD000001
:101CB00080B584B0029000200190029820B9FFE71F
:101CC00001208DF80F0084E00298407C38B9FFE7CE
:101CD000029900200874029800F080F8FFE702994A
:101CE00002204874029800F041F938B1FFE70299E8
:101CF0000420487401208DF80F006AE0029801F07A
:101D000001FC38B1FFE702990420487401208DF8E6
:101D10000F005EE002980168486820F00700486004
:101D20000298806848B1FFE746F63041C4F20001EE
:101D3000086820F001000860FFE746F62C41C4F275
:101D40000001086820F46070029A926810430860ED
:101D500002984068013020B1FFE702984068019086
:101D600012E00120FFF70CF80190019838B9FFE765
:101D700002990420487401208DF80F0029E0019891
:101D800001380190FFE7FFE7BDF8060000F00F0003
:101D9000029909688860BDF8040002990968C86062
:101DA000029801F0DBFB38B1FFE702990420487488
:101DB00001208DF80F000CE002990020C873029AF0
:101DC00001215173029A9173029A51748DF80F0098
:101DD000FFE79DF80F0004B080BD000080B582B021
:101DE00001900198006842F60001C4F200018842A7
:101DF00018D1FFE7FEF7BEFFFFE741F21C00C4F277
:101E00000200016841F000610160006800F00060BC
:101E100000900098FFE740F23C41C4F242210120CB
:101E20000860FFE702B080BD80B588B006900591DC
:101E30000492002003900290069818B1FFE70598DD
:101E400020B9FFE701208DF81F008AE0FFE7069820
:101E5000007C012804D1FFE702208DF81F0080E0FC
:101E6000069901200874FFE7FFE7069902204874ED
:101E7000049870B9FFE7059908784A7889784FF493
:101E800061635843C2EB021200EB820008440390E6
:101E90001BE00598007801F047FA4FF46161484370
:101EA00000900598407801F03FFA01460098C1EB98
:101EB000011100EB810001900598807801F034FA5F
:101EC0000146019808440390FFE70698039901F042
:101ED00097FC60B1FFE7069904204874FFE7069974
:101EE00000200874FFE701208DF81F0039E00698F4
:101EF0000168486820F005004860069801F096FBEC
:101F000002900298013000B3FFE7029803998842DB
:101F10001AD2FFE7029845F28011C0F2010108448D
:101F200002900698029901F043FC60B1FFE7069920
:101F300004204874FFE7069900200874FFE7012099
:101F40008DF81F000DE0FFE7FFE7069901204874B8
:101F5000FFE7069900200874FFE700208DF81F00B6
:101F6000FFE79DF81F0008B080BD000080B584B079
:101F7000029000200190029820B9FFE701208DF81F
:101F80000F0021E002980168486820F008004860CE
:101F9000FEF732FE0190FFE70298006840680007F4
:101FA00000280DD4FFE7FEF727FE0199401AB0F58F
:101FB0007A7F04D9FFE703208DF80F0004E0EBE7F8
:101FC00000208DF80F00FFE79DF80F0004B080BDE2
:101FD00080B582B00190019801F060FD02B080BD33
:101FE00081B0009001B0704781B0009001B070479F
:101FF00085B003900291FFE7039890F83C00012818
:1020000004D1FFE702208DF813005BE00399012063
:1020100081F83C00FFE7FFE70399022081F83D00CB
:1020200003980068406801900398006880680090F9
:10203000019820F07000019002980168019808430F
:10204000019001980399096848600398006842F676
:102050000041C4F20101884218D0FFE703980068EC
:10206000B0F1804F12D0FFE70398006840F20041C2
:10207000C4F20001884209D0FFE70398006840F6E7
:102080000001C4F2000188420ED1FFE7009820F061
:1020900080000090029841680098084300900098E2
:1020A000039909688860FFE70399012081F83D00E2
:1020B000FFE70399002081F83C00FFE700208DF83E
:1020C0001300FFE79DF8130005B0704780B582B09C
:1020D0000090009820B9FFE701208DF807003FE04D
:1020E000009890F83D0040B9FFE70099002081F882
:1020F0003C00009800F038F8FFE70099022081F8D2
:102100003D00009951F8040B01F04AFD00990120AF
:1021100081F84600FFE70099012081F83E00009910
:1021200081F83F00009981F84000009981F8410052
:10213000FFE7FFE70099012081F84200009981F84C
:102140004300009981F84400009981F84500FFE7B9
:102150000099012081F83D0000208DF80700FFE77D
:102160009DF8070002B080BD80B584B0039003984D
:102170000068B0F1804F19D1FFE7FFE741F21C0082
:10218000C4F20200016841F001010160006800F042
:10219000010002900298FFE71C20019000221146E6
:1021A000FEF7C6FD0198FEF7B9FDFFE704B080BD5C
:1021B00083B00190019890F83D00012804D0FFE71A
:1021C00001208DF80B0047E00199022081F83D00C5
:1021D00001980168C86840F00100C8600198006873
:1021E00042F60041C4F20101884218D0FFE701988D
:1021F0000068B0F1804F12D0FFE70198006840F20C
:102200000041C4F20001884209D0FFE7019800684C
:1022100040F60001C4F20001884212D1FFE70198A4
:102220000068806800F0070000900098062807D03A
:10223000FFE701980168086840F001000860FFE7C7
:1022400006E001980168086840F001000860FFE7B7
:1022500000208DF80B00FFE79DF80B0003B07047DE
:1022600080B586B00490039100208DF80B00FFE745
:10227000049890F83C00012804D1FFE702208DF873
:102280001700ABE00499012081F83C00FFE7FFE76D
:102290000499022081F83D0004980068806801904C
:1022A000019820F077000190019820F47F40019080
:1022B00001980499096888600398006800900028D4
:1022C00072D0FFE7009810286ED0FFE70098202812
:1022D0006AD0FFE70098302866D0FFE700984028D2
:1022E00055D0FFE70098502837D0FFE700986028C6
:1022F00040D0FFE7009870280BD0FFE70098B0F5BA
:10230000805F05D0FFE70098B0F5005F16D052E07F
:1023100055E004980068039B5A689968DB6801F0EF
:10232000C3FC0498006880680190019840F0770031
:102330000190019804990968886040E00498006859
:10234000039B5A689968DB6801F0AEFC0498016849
:10235000886840F48040886031E004980068039AFF
:102360005168D26801F0D0FC04980068502101F057
:10237000B5FC24E004980068039A5168D26801F023
:10238000EBFC04980068602101F0A8FC17E00498B9
:102390000068039A5168D26801F0B6FC049800689E
:1023A000402101F09BFC0AE0049800680399096849
:1023B00001F094FC03E001208DF80B00FFE7049985
:1023C000012081F83D00FFE70499002081F83C00DE
:1023D000FFE79DF80B008DF81700FFE79DF8170049
:1023E00006B080BD81B0009001B0704780B584B068
:1023F000039003980068C068029003980068006921
:1024000001909DF804008007002824D5FFE79DF87F
:102410000800800700281DD5FFE7039801686FF0CA
:102420000200086103990120087703980068806919
:10243000800720B1FFE70398FFF7D4FF06E0039879
:1024400000F0E2F8039800F0E3F8FFE703990020BA
:102450000877FFE7FFE79DF804004007002825D52F
:10246000FFE79DF80800400700281ED5FFE7039806
:1024700001686FF00400086103990220087703984F
:102480000068806910F4407F04D0FFE70398FFF7ED
:10249000A9FF06E0039800F0B7F8039800F0B8F839
:1024A000FFE7039900200877FFE7FFE79DF80400A6
:1024B0000007002824D5FFE79DF808000007002842
:1024C0001DD5FFE7039801686FF0080008610399C4
:1024D0000420087703980068C069800720B1FFE7EF
:1024E0000398FFF77FFF06E0039800F08DF803984C
:1024F00000F08EF8FFE7039900200877FFE7FFE779
:102500009DF80400C006002825D5FFE79DF80800C7
:10251000C00600281ED5FFE7039801686FF0100081
:10252000086103990820087703980068C06910F4CF
:10253000407F04D0FFE70398FFF754FF06E00398BD
:1025400000F062F8039800F063F8FFE703990020B9
:102550000877FFE7FFE79DF80400C00778B1FFE7C1
:102560009DF80800C00748B1FFE7039801686FF0C5
:1025700001000861039800F04FF8FFE7FFE79DF8BE
:1025800004000006002810D5FFE79DF808000006AB
:10259000002809D5FFE7039801686FF08000086103
:1025A0000398FFF71DFDFFE7FFE79DF804004006D5
:1025B000002810D5FFE79DF808004006002809D53F
:1025C000FFE7039801686FF040000861039800F08E
:1025D00031F8FFE7FFE79DF804008006002810D5DA
:1025E000FFE79DF808008006002809D5FFE703985B
:1025F00001686FF0200008610398FFF7F5FCFFE722
:10260000FFE704B080BD000081B0009001B07047CA
:1026100081B0009001B0704780B582B00190019800
:102620000068B0F1804F03D1FFE701F095F9FFE7B3
:1026300002B080BD81B0009001B07047FFE7FEE7B7
:1026400080B582B040F2F000C2F20000007A01468C
:102650000091052800F22F810099DFE811F00600B3
:102660003A007C00AE00D400060140F2F000C2F255
:10267000000042794CF6CD41CCF6CC41A2FB0132B0
:10268000D2088DF807204079A0FB0121C90801EB91
:102690008101A0EB41008DF806009DF80700013094
:1026A0008DF807009DF80700032804DBFFE70020F2
:1026B0008DF80700FFE79DF8070000EB80019DF80B
:1026C000060000EB410040F2F001C2F20001487147
:1026D000F1E040F2F000C2F2000042794CF6CD4148
:1026E000CCF6CC41A2FB0132D2088DF8072040790C
:1026F000A0FB0121C90801EB8101A0EB41008DF88D
:1027000006009DF8060001308DF806009DF80700D0
:10271000022809D1FFE79DF80600042804DBFFE743
:1027200000208DF80600FFE79DF806000A2804DB6C
:10273000FFE700208DF80600FFE79DF8070000EB9B
:1027400080019DF8060000EB410040F2F001C2F26A
:1027500000014871AFE040F2F001C2F20001887957
:102760004CF6CD42CCF6CC42A0FB0230C0088DF82E
:1027700007008879A0FB0232D20802EB8202A0EBAC
:1027800042008DF806009DF8070001304AF6AB22A2
:10279000CAF6AA22A0FB0232920802EB4202A0EB88
:1027A00042008DF807009DF8070000EB80029DF8BD
:1027B000060000EB420088717DE040F2F001C2F2B9
:1027C000000188794CF6CD42CCF6CC42A0FB02C386
:1027D000DB0803EB8303A0EB43000130A0FB02C343
:1027E000DB0803EB8303A0EB43008DF80600887938
:1027F000A0FB0220C00800EB80029DF8060000EB61
:102800004200887157E040F2F001C2F20001C8793D
:102810004CF6CD42CCF6CC42A0FB0230C0088DF87D
:102820000700C879A0FB0232D20802EB8202A0EBBB
:1028300042008DF806009DF8070001304AF6AB22F1
:10284000CAF6AA22A0FB0232920802EB4202A0EBD7
:1028500042008DF807009DF8070000EB80029DF80C
:10286000060000EB4200C87125E040F2F001C2F220
:102870000001C8794CF6CD42CCF6CC42A0FB02C395
:10288000DB0803EB8303A0EB43000130A0FB02C392
:10289000DB0803EB8303A0EB43008DF80600C87947
:1028A000A0FB0220C00800EB80029DF8060000EBB0
:1028B0004200C871FFE701F079FA02B080BD000064
:1028C00080B582B040F29400C2F200000121FFF70F
:1028D000E7F8019001980A2807D8FFE7019820B18E
:1028E000FFE79DF80400009002E005200090FFE75C
:1028F000009840F20C01C2F20001087002B080BDE5
:1029000080B590B000200F900E900D900C90FFE7D6
:1029100041F21800C4F20200016841F010010160A8
:10292000006800F010000B900B98FFE7FFE741F202
:102930001800C4F20200016841F020010160006843
:1029400000F020000A900A98FFE7FFE741F2180024
:10295000C4F20200016841F004010160006800F067
:10296000040009900998FFE7FFE741F21800C4F25C
:102970000200016841F008010160006800F00800F1
:1029800008900898FFE740F60000C4F201000690A6
:102990003F21009100220592FEF716F9059A40F6B4
:1029A0000040C4F20100039048F2D8310491FEF7D0
:1029B0000BF9009A059906980C92012201920D924A
:1029C0000E91022102910F910CA90791FDF754FF7E
:1029D000DDF804C0029A0398059B0799DDF810E022
:1029E000CDF830E0CDF834C00E930F92FDF744FFE0
:1029F000059A069807994FF4F0530C930D920E9296
:102A0000FDF73AFF10B080BD80B540F29400C2F2ED
:102A1000000042F60001C4F2000101604FF0FF31F6
:102A200041604FF480718160FFF742F918B1FFE710
:102A3000FDF7A2FEFFE780BD80B588B000210191BF
:102A400007910691059104910391029140F2A8002B
:102A5000C2F200004FF0804202604160816040F2AB
:102A6000CF22C26001618161FFF730FB18B1FFE73F
:102A7000FDF782FEFFE74FF48050049040F2A8007B
:102A8000C2F2000004A9FFF7EBFB18B1FFE7FDF766
:102A900073FEFFE700200290039040F2A800C2F20C
:102AA000000002A9FFF7A4FA18B1FFE7FDF764FEE2
:102AB000FFE708B080BD0000FFE7FEE781B040F20D
:102AC000F001C2F2000100200870487008724872DC
:102AD000C8600090FFE70098032821DCFFE700981A
:102AE00040F2F001C2F200010A1800209074009A2E
:102AF00001EB82029061009A0A4482F82800009A51
:102B00000A4482F82C00009A01EB82021064009AB9
:102B1000114481F85000FFE7009801300090DAE797
:102B200001B0704780B584B0FEF766F8039040F2BC
:102B3000F000C2F200000078022819D1FFE70398E4
:102B400040F2F001C2F20001C968401AB0F5FA7F04
:102B50000DD3FFE7039840F2F001C2F20001C86014
:102B60004A7A01209043487201F020F9FFE7FFE71D
:102B700000200290FFE70298032800F34781FFE757
:102B8000029800F065FE002818BF01208DF80700AC
:102B90009DF8070000F00100029A40F2F001C2F235
:102BA0000001114491F8501001F00101884212D047
:102BB000FFE70398029A40F2F001C2F2000101EB34
:102BC000820210649DF80700029A114400F001008F
:102BD00081F85000FFE70398029A40F2F001C2F238
:102BE000000101EB8201096C401A1E280DD3FFE79A
:102BF000029940F2F000C2F20000084490F8500040
:102C000000F001008DF806000BE0029940F2F000A0
:102C1000C2F200000844807C00F001008DF806003C
:102C2000FFE7029940F2F000C2F200000844807C05
:102C300000F001008DF805009DF80600C007C0B146
:102C4000FFE79DF80500C00798B9FFE70398029ACF
:102C500040F2F001C2F2000101EB820290610298A1
:102C60000A18002082F82800029A114481F82C00EA
:102C7000BCE09DF80600C007002800F09080FFE748
:102C80009DF80500C007002800F08980FFE7029941
:102C900040F2F000C2F20000084490F82800C0079B
:102CA000E0B9FFE70398029A40F2F001C2F2000196
:102CB00001EB82018969401AB0F5FA7F0ED3FFE774
:102CC000029940F2F000C2F200000844012180F8AD
:102CD00028109DF8080000F061F95FE0029940F2C9
:102CE000F000C2F20000084490F82800C00760B36A
:102CF000FFE7029940F2F000C2F20000084490F8A9
:102D00002C00C00708BBFFE70398029A40F2F001CD
:102D1000C2F2000101EB82018969401AB0F5FA7F25
:102D200013D3FFE7029840F2F002C2F2000210440F
:102D3000012180F82C100398029B02EB83021063A0
:102D40009DF8080000F02AF927E0029940F2F0000F
:102D5000C2F20000084490F82C00C007E0B1FFE781
:102D60000398029A40F2F001C2F2000101EB8201E5
:102D7000096B401A64280FD3FFE70398029A40F2C8
:102D8000F001C2F2000101EB820108639DF8080026
:102D9000012100F003F9FFE7FFE7FFE725E09DF8D9
:102DA0000600C00700BBFFE79DF80500C007D8B1CB
:102DB000FFE7029940F2F000C2F20000084490F8E8
:102DC0002800C00730B9FFE79DF80800002100F097
:102DD000E5F8FFE7029940F2F000C2F2000001447A
:102DE000002081F82C00FFE7FFE7FFE79DF80600D1
:102DF000029A40F2F001C2F20001114400F0010019
:102E00008874FFE7029801300290B4E640F2F000C7
:102E1000C2F20000007898B9FFE7039840F2780109
:102E2000C2F200010968401AC82809D3FFE70398D5
:102E300040F27801C2F20001086000F0B7FFFFE73E
:102E400004B080BDFFE7FEE788B0079006910592C9
:102E5000079800F0070004900498C0F107000528C7
:102E600003D3FFE70420019004E00498C0F10700B9
:102E70000190FFE70198039004980430062803D8D6
:102E8000FFE70020009003E0049803380090FFE77C
:102E90000098029006980399012202FA01F1013983
:102EA0000840029B984005999A40013A1140084316
:102EB00008B0704781B040F28000C2F20000017893
:102EC000013101700078062807DBFFE740F280013E
:102ED000C2F2000100200870FFE740F20400C2F2D5
:102EE0000000006838B9FFE740F20401C2F20001B7
:102EF00001200860FFE740F20400C2F20000016810
:102F000044F24020C0F20F00B0FBF1F04CF6CD418E
:102F1000CCF6CC41A0FB0110C00800900098052819
:102F200003D8FFE706200090FFE700984AF6AB21A0
:102F3000CAF6AA21A0FB0110810840F27C00C2F26F
:102F400000000160006838B9FFE740F27C01C2F27E
:102F5000000101200860FFE740F27C00C2F200009F
:102F6000006840F20001C2F200010978484348F2CB
:102F70001F51C5F2EB11A0FB0110400940F2840182
:102F8000C2F20001086040F24411C2F200010020C8
:102F9000086001B0704700007047000080B58AB03B
:102FA0008DF827008DF8261040F2F000C2F20000E4
:102FB0000078A8B9FFE79DF82600C00780B1FFE7B9
:102FC0009DF8270002280BD1FFE740F2F001C2F282
:102FD0000001012008700020487000F0E7FE83E146
:102FE00040F2F000C2F2000000780138014606917C
:102FF000032800F278810699DFE811F00400A900A7
:10300000EB0052019DF82700A8B9FFE740F2F0005D
:10301000C2F200004178013141704078032807DB9B
:10302000FFE740F2F001C2F2000100204870FFE724
:1030300000F0BCFE8AE09DF82700012819D1FFE7C7
:1030400040F2F000C2F20000407838B9FFE740F2E9
:10305000F001C2F200010220487007E040F2F001E6
:10306000C2F20001487801384870FFE700F09EFE88
:103070006BE09DF82700022857D1FFE79DF8260056
:10308000C007002851D1FFE740F2F000C2F2000073
:1030900040780146059140B1FFE7059801282BD003
:1030A000FFE70598022835D03BE040F2F001C2F27C
:1030B0000001049102200870FDF7F2F804990790CE
:1030C0009DF81E008DF82200BDF81C00ADF8200010
:1030D0009DF822000871BDF8200048800879C87169
:1030E0004888A1F805000020087201204872FDF709
:1030F00083FD0499C86015E040F2F001C2F20001BE
:10310000039103200870FDF7C5F803990874087C43
:10311000487407E040F2F001C2F200010420087098
:1031200000E0FFE700F042FE0EE09DF827000328D4
:1031300009D1FFE740F2F001C2F20001002008705F
:1031400000F034FEFFE7FFE7FFE7FFE7CCE09DF884
:10315000270018B9FFE7FFF773FA39E09DF8270059
:10316000012803D1FFE7FDF72DF930E09DF8270096
:1031700002281CD1FFE740F2F000C2F20000017A01
:1031800001310172007A06280EDBFFE740F2F002FF
:10319000C2F20002029250799179D279FDF7F2F8E9
:1031A000029900200870FFE700F000FE0EE09DF895
:1031B0002700032809D1FFE740F2F001C2F2000125
:1031C0000020087000F0F2FDFFE7FFE7FFE7FFE7F0
:1031D0008AE09DF82700C8B9FFE740F2F000C2F28C
:1031E0000000407C092811DCFFE740F2F000C2F249
:1031F0000000417C01314174407C00EB80004000C4
:10320000C0B200F0ADFB00F0D1FD48E09DF8270012
:10321000012819D1FFE740F2F000C2F20000407C23
:10322000012811DBFFE740F2F000C2F20000417C10
:1032300001394174407C00EB80004000C0B200F0D6
:103240008FFB00F0B3FD29E09DF8270002280ED186
:10325000FFE740F2F000C2F200000190407CFDF771
:1032600071F801990020087000F0A0FD15E09DF8AC
:103270002700032810D1FFE740F2F000C2F200005F
:1032800000210170007C00EB80004000C0B200F023
:1032900067FB00F08BFDFFE7FFE7FFE7FFE723E0B9
:1032A0009DF8270002280ED1FFE7FDF743F808201C
:1032B000FDF748F840F2F001C2F20001002008706A
:1032C00000F074FD0EE09DF82700032809D1FFE708
:1032D00040F2F001C2F200010020087000F066FD2B
:1032E000FFE7FFE700E0FFE70AB080BD82B0019092
:1032F000019840F20801C2F200010968C90844F6C9
:10330000D352C1F26202A1FB022189094843009015
:10331000FFE700BFFFE70098411E00910028F8D1A9
:10332000FFE702B07047000082B08DF80700002070
:1033300000909DF80700000900EB8000400000901D
:1033400000989DF8071001F00F010844C0B202B0C8
:103350007047000082B08DF8070000200090FFE762
:103360009DF807000A2809D3FFE700980130009074
:103370009DF807000A388DF80700F1E7009800F083
:103380000F019DF8070040EA011002B070470000ED
:1033900080B586B0059004910020039002900190C2
:1033A00000900599C97B03910599497B0291059984
:1033B000897B01910090FFE700980499884280F092
:1033C0008C80FFE70298012818D0FFE702980328B5
:1033D00014D0FFE70298052810D0FFE702980728CD
:1033E0000CD0FFE70298082808D0FFE702980A28C7
:1033F00004D0FFE702980C281BD1FFE701981E2894
:1034000004D8FFE701980130019011E002980C28E0
:1034100006D0FFE70298013002900120019006E0FB
:10342000012002900190039801300390FFE7FFE72D
:103430004EE0029804280CD0FFE70298062808D036
:10344000FFE70298092804D0FFE702980B280FD164
:10345000FFE701981D2804D8FFE70198013001908B
:1034600005E002980130029001200190FFE72EE074
:10347000029802282AD1FFE701981B2804D8FFE709
:1034800001980130019020E001981C2811D1FFE73C
:10349000BDF80C0000F08EF820B1FFE70198013074
:1034A000019005E002980130029001200190FFE7B1
:1034B0000AE001981D2806D1FFE70298013002902A
:1034C00001200190FFE7FFE7FFE7FFE7FFE7FFE7E6
:1034D000FFE70098013000906EE703980599C873E4
:1034E00002980599487301980599887303989DF887
:1034F00008109DF8042000F0E9F80599087306B05B
:1035000080BD000080B584B0029000200190FDF7DE
:1035100073FB0190FFE7029800684068800600286E
:103520000DD4FFE7FDF768FB0199401AB0F57A7FEB
:1035300004D9FFE703208DF80F000AE0EBE70298BB
:103540000168486840F01000486000208DF80F00C6
:10355000FFE79DF80F0004B080BD000080B584B087
:1035600002900020019002980168486820F0100045
:103570004860FDF741FB0190FFE702980068406852
:10358000800600280DD4FFE7FDF736FB0199401AAD
:10359000B0F57A7F04D9FFE703208DF80F0004E02F
:1035A000EBE700208DF80F00FFE79DF80F0004B057
:1035B00080BD000081B0ADF80000BDF800008007BC
:1035C00020B1FFE700208DF803002BE0BDF80000DC
:1035D00045F62941CCF28F2148434FEAB00045F629
:1035E0002941C0F28F21884204D3FFE701208DF8E2
:1035F000030017E0BDF8000045F62941CCF28F2109
:1036000048434FEA30104DF20A71C0F2A3018842DC
:1036100004D8FFE701208DF8030003E000208DF8B7
:103620000300FFE79DF8030001B0704782B00190EE
:103630000020ADF80200ADF8000001980068006AB3
:10364000ADF8020001980068406AADF80000BDF8CE
:103650000210BDF8000040EA014002B070470000CF
:1036600084B003900020ADF80A00ADF80800ADF872
:1036700006000090039800688069ADF80A0003987E
:103680000068C069ADF80600039800688069ADF86D
:103690000800BDF80A00BDF8081088420AD0FFE70C
:1036A000BDF8081003980068C06980B240EA014084
:1036B000009007E0BDF80A10BDF8060040EA01409E
:1036C0000090FFE7009804B07047000084B00390BA
:1036D0008DF80B108DF80A200020019000900398BF
:1036E00000F5FA6001909DF80B0002282ED8FFE744
:1036F0009DF80B001721484348F63961C3F6E301F2
:10370000A0FB01019DF80A0000EB5100019908445B
:10371000013900EB910048F21F52C5F2EB12A1FBF8
:103720000221A0EB511000EBD110043044F625111A
:10373000C2F29241A0FB0121421A01EB5202910810
:10374000C900A1EB9201401A00902CE09DF80B00FB
:103750001721484348F63961C3F6E301A0FB010194
:103760009DF80A0000EB51000199084400EB91001C
:1037700048F21F52C5F2EB12A1FB0221A0EB51103F
:1037800000EBD110023044F62511C2F29241A0FBA9
:103790000121421A01EB52029108C900A1EB9201EA
:1037A000401A0090FFE79DF8000004B07047000049
:1037B00080B584B00390029100208DF80700039833
:1037C000FFF7A0FE20B1FFE701208DF8070013E00E
:1037D000BDF80A00039909680862BDF8080003995A
:1037E000096848620398FFF7B9FE20B1FFE701209E
:1037F0008DF80700FFE7FFE79DF8070004B080BDE4
:1038000080B584B00390029100208DF807000398E2
:10381000FFF778FE20B1FFE701208DF8070013E0E5
:10382000BDF80A00039909688861BDF8080003998A
:103830000968C8610398FFF791FE20B1FFE70120F6
:103840008DF80700FFE7FFE79DF8070004B080BD93
:1038500080B584B0029002980190032838D801996D
:10386000DFE801F0020F1C2940F60000C4F201005D
:103870004FF48061FDF790F9B0FA80F040090390B1
:1038800029E040F60000C4F201004FF40061FDF7AA
:1038900083F9B0FA80F0400903901CE040F6000084
:1038A000C4F201004FF40071FDF776F9B0FA80F030
:1038B000400903900FE040F60000C4F201004FF40D
:1038C0008051FDF769F9B0FA80F04009039002E0F9
:1038D00000200390FFE7039804B080BD704700000C
:1038E00080B540F20C00C2F20000027840F2940071
:1038F000C2F200000121FEF7EBF880BD80B582B076
:1039000040F28001C2F200010020087040F2441130
:10391000C2F20001086040F27C02C2F20002012102
:10392000116040F28402C2F2000211600190FFE7D0
:10393000019805280CDCFFE7019A40F28B01C2F2E6
:103940000001FF208854FFE7019801300190EFE764
:10395000FFF7B0FA02B080BD80B500F0CBFA80BDB1
:1039600081B08DF803009DF80300652804DBFFE7B4
:1039700064208DF80300FFE79DF80300002804DCB5
:10398000FFE701208DF80300FFE79DF8030040F2F8
:103990000001C2F20001087001B0704780B582B02A
:1039A000019000200090FFE7009805281EDCFFE74B
:1039B00001980099405C40B9FFE7009A40F28B0102
:1039C000C2F20001FF2088540BE001980099405C8E
:1039D000FCF724FF009A40F28B01C2F200018854E8
:1039E000FFE7FFE7009801300090DDE702B080BDFF
:1039F00081B08DF803009DF80300C1074FF08020CF
:103A0000002918BF4FF0004040F61041C4F20101F8
:103A100008609DF803004008C2074FF01010002A0C
:103A200018BF4FF4801008609DF803008008C2079B
:103A30004FF00810002A18BF4FF4002008609DF8CE
:103A40000300C008C2074FF04010002A18BF4FF40F
:103A5000800008609DF803000009C2074FF0801045
:103A6000002A18BF4FF4000008609DF803004009C9
:103A7000C2074FF00120002A18BF4FF08070086085
:103A80009DF803008009C2074FF00220002A18BFEA
:103A90004FF00070086001B07047000080B582B040
:103AA000009000980138B0F1807F03D3FFE7012038
:103AB000019019E0009801384EF21401CEF2000195
:103AC00008604FF0FF300F2100F096FA4EF2180117
:103AD000CEF20001002008604EF21002CEF2000289
:103AE000072111600190FFE7019802B080BD00003E
:103AF00080B5FDF787F880BD80B596B00CA8019021
:103B00002821FCF761FB0198002202920B920A9295
:103B10000992089207920692059204920392052157
:103B20000C914FF480310D910E9201220F92109260
:103B30000222139214914FF4E0111591FDF772FCDB
:103B400018B1FFE7FCF718FEFFE70F2007900221EE
:103B50000891002009904FF480620A920B9007A808
:103B6000FDF7BEFA18B1FFE7FCF706FEFFE70120FC
:103B700003904FF48070049003A8FDF7CDF918B1BD
:103B8000FFE7FCF7F9FDFFE716B080BD70470000C6
:103B900080B540F2A800C2F20000FEF727FC80BD0D
:103BA00083B002900191029800680090029842F65A
:103BB0000041C4F20101884215D0FFE70298B0F13C
:103BC000804F10D0FFE7029840F20041C4F200019C
:103BD000884208D0FFE7029840F60001C4F20001D5
:103BE00088420AD1FFE7009820F070000090019809
:103BF0004168009808430090FFE7029842F60041B0
:103C0000C4F20101884215D0FFE70298B0F1804F5D
:103C100010D0FFE7029840F20041C4F20001884250
:103C200008D0FFE7029840F60001C4F20001884284
:103C30000AD1FFE7009820F4407000900198C16815
:103C4000009808430090FFE7009820F08000019959
:103C500049690843009000980299086001988068BB
:103C60000299C8620198006802998862029842F637
:103C70000041C4F20101884205D1FFE701980069C3
:103C800002990863FFE702990120486102980069E0
:103C9000C00730B1FFE70299086920F00100086110
:103CA000FFE703B07047000085B0049003910292D3
:103CB0000193049880680090009820F47F40009061
:103CC00003980299019A41EA0221014300980843AE
:103CD000009000980499886005B0704783B0029006
:103CE0000191029880680090009820F07000009088
:103CF00001980099084340F007000090009802994D
:103D0000886003B07047000085B004900391029270
:103D10000498006A00900499086A20F00100086283
:103D2000049880690190019820F0F00001900299B8
:103D3000019840EA01100190009820F00A000090DC
:103D400003990098084300900198049988610098AD
:103D50000499086205B0704785B0049003910292FF
:103D60000498006A00900499086A20F01000086224
:103D7000049880690190019820F4704001900299A4
:103D8000019840EA01300190009820F0A0000090D6
:103D90000399009840EA0110009001980499886105
:103DA00000980499086205B07047000080B58CB097
:103DB00040F2F000C2F200000078014604910428AD
:103DC00000F295800499DFE801F0031840668B004B
:103DD000FCF766FA0A909DF82A008DF82E00BDF8CF
:103DE0002800ADF82C000DF1210003900BA9FCF781
:103DF000CBFC0398FFF7D2FD79E040F2F000C2F26D
:103E0000000040780146029140B1FFE70298012886
:103E10000BD0FFE7029802280ED014E044F26110A4
:103E2000C0F60000FFF7BAFD0EE044F25A10C0F6EB
:103E30000000FFF7B3FD07E044F26810C0F6000091
:103E4000FFF7ACFD00E0FFE751E040F2F000C2F206
:103E500000000190411D0DF11A00FCF795FC01983E
:103E6000407AC00790B1FFE740F2F000C2F20000D4
:103E7000007A05280ADCFFE740F2F000C2F20000F9
:103E8000027A0DF11A0120208854FFE70DF11A0083
:103E9000FFF784FD2BE042F22000ADF8180045F258
:103EA0004450C5F65410059040F2F000C2F20000F4
:103EB000407C0A2807D1FFE731208DF81800302018
:103EC0008DF8190008E040F2F000C2F20000407CDA
:103ED00030308DF81900FFE705A8FFF75FFD06E019
:103EE00044F26810C0F60000FFF758FDFFE70CB081
:103EF00080BD000080B582B040F24410C2F20000E4
:103F0000006878BBFFE7FCF7CFFB00BF00BF40F2C3
:103F10008000C2F20000027840F28B01C2F2000180
:103F2000895C8DF80710007805280FD1FFE79DF810
:103F3000071001F09F0001F0200240EA420001F06A
:103F4000400140EA51008DF80700FFE79DF80700A7
:103F5000FFF74EFD40F28000C2F200000078FCF74F
:103F6000CFFBFFE740F24410C2F20000006840F2CD
:103F70008401C2F200010968884206D3FFE7FCF71A
:103F800093FBFF20FFF734FDFFE740F24410C2F23D
:103F90000000016801310160006840F27C01C2F25A
:103FA00000010968884203D3FFE7FEF783FFFFE7BC
:103FB00002B080BDFFE7FEE781B08DF803009DF9F8
:103FC000030000280ED4FFE79DF9031001F01F0243
:103FD000012090404A094EF20011CEF2000141F852
:103FE0002200FFE701B070474EF60C50CEF2000001
:103FF0000068C0F30220704782B08DF8070000917E
:104000009DF9070000280AD4FFE7009800019DF9F8
:1040100007104EF20042CEF2000288540BE00098E6
:1040200000019DF8071001F00F014EF61452CEF278
:1040300000028854FFE702B07047000083B002908E
:10404000029800F0070000904EF60C51CEF20001ED
:104050000868019001984FF6FF0210400190019806
:10406000009A40EA02200022C0F2FA521043019066
:104070000198086003B0704780B582B000200190BD
:10408000FCF7CEFDFFF738FDFEF73AFCFEF7BCFC6F
:10409000FEF7D2FCFFF732FCFCF72CF9FEF70EFD21
:1040A00040F2A800C2F20000FEF782F8FFE7FEF738
:1040B00039FDFCE7000000000000000001020304DD
:1040C00006070809000000000102030402030405BA
:1040D000060708090A0B0C0D0E0F1010010202034F
:1040E0000405060708090A0B0C0D0E0F101001023B
:1040F00030C031F932A433B034993592368237F872
:1041000038803990418861884283628343C663C6A0
:1041100044A164A145866586468E668E47C267C205
:104120004889688949F969F94AF16AF14CC76CC74D
:104130004EAB6EAB4FC06FC0508C708C5198719865
:1041400052AF72AF539273925487748755C175C141
:10415000599179912DBF5FF720FF5345542044209A
:10416000005345542054200052455345542000002C
:1041700090410008000000201800000028010008FD
:10418000A84100081800002038070000440100087A
:10419000640000005000000000127A0005010000D9
:0841A000100000000000000007
:04000005080000ED02
:00000001FF
